:1000000000308A00252800000A108A100A11820791
:10001000FC346034DA34F2346634B634BE34E0345E
:10002000FF34E634EE343E349C347A349E348E34DD
:100030002330840083130008031924282030F7009C
:10004000F70B2028800B1E28080003081F398300A7
:10005000831603170908C039890003131F129F1262
:1000600000300317880083128701880189018313F8
:10007000FF3083160313850000308600870083124B
:10008000A101051C692821080420A200860021087E
:100090008700851858281430A200FA30A3001820D1
:1000A000A20B4D280130A102A11F58280F30A1003A
:1000B000851C69281430A200FA30A3001820A20B76
:1000C0005C280130A107A11B692821080F3C031CF3
:1000D000A1010518912821080420A200860021080A
:1000E0008700851C8228851F7A286430A300182089
:1000F0000130A107851B7A28A11B822821080F3C0B
:10010000031CA10185189128851F8B286430A3004A
:1001100018200130A102851B8B28A11F91280F30C8
:06012000A100412863006C
:04400E00D420FF3E7D
:00000001FF
;PIC16F886
;CRC=798E  CREATED="17-oct-18 09:27"
