:1000000005308A00622D00000A108A100A1182074A
:1000100028340C34013406340C100A100C00C330A0
:10002000EE306C1DA53A2022E933BA12EC3A2010CA
:100030008A20EE30EC37E734E337BA122E19670026
:100040003630840083130008031934280130F80087
:10005000F701F70B2928F80B28284A30F700F70B8F
:100060002F283228800B262808003D0EF039F70093
:100070000F30060577048600000006143F2806109E
:1000800008008610F03083168600831206150000E3
:10009000061400000608060E0F39BD000610000009
:1000A000061400000608060E0F39BC0006100030CA
:1000B0008316860083123D0EF700F030F7057708AF
:1000C0003C04F8007808BC00BC1B42283A1C86108F
:1000D0003A18861400000611000006103B0EBC0002
:1000E0000F30BC053C08BD0035203B080F39BC0073
:1000F000BD0035200800003083168600831286106C
:10010000061106100F30B60020200130A800280884
:10011000033C031C93280330BD0035200530B60096
:100120002020A80A87280230BD003520A801280811
:10013000033C031CA42828080420A900BA012908AC
:10014000BB004120A80A97288A110A128E2D370B6E
:10015000AA28AD284030B800AE28B80101303602D8
:10016000B80738088038B900BA013908BB00412007
:1001700008008E30F7002908F8002808F900FA0175
:10018000F808031DCD287908F800F9010830F702B6
:10019000F808031DCD28F701D5280310F81BD42833
:1001A000F90DF80DF703CD28F8138A110A12AE2DB8
:1001B000350803194829BD00390803194829BD0726
:1001C0000318E9287F30BD02031C48290319482978
:1001D000ED288130BD07031848293D08F700F801D4
:1001E000F901FA013608C100C1173708C000380804
:1001F000BF001830BD00BE013F1C16293C08FA079D
:10020000031C0829F90A031D0829F80A0319BE1757
:100210003B08F907031C0F29F80A0319BE173A080F
:10022000B700B7173708F8070318BE17BE0DF80C4C
:10023000F90CFA0CC10CC00CBF0C0310BD0BFB2851
:100240000130F70703184829F81B2D29C10DFA0DB5
:10025000F90DF80DF70303194829C11F3E29FA0AC1
:10026000031D3E29F90A031D3E29F80A031D3E29F4
:10027000F80CF90CFA0CF70A031948293608BE00E5
:100280003A08BE06BE1F4629F8174C29F8134C2918
:10029000F701F801F901FA01080035080C3A0319D1
:1002A0005829063A03196029023A031966296B296D
:1002B000BA010130BB0041200230B6002020702975
:1002C0000130B6000230B700A7207029BA01103003
:1002D000BB00412070290130BA003508BB00412025
:1002E00008000B08A8008B13831603178C170C1437
:1002F0000000000083120313A81B8B1703170C08C0
:100300007F390319C5290313A80003170D08031328
:10031000A90003170F080313AA002808B5004D21F0
:10032000290803178D0003132A0803178F000313EE
:100330000B08AB008B13831603178C170C140000EB
:10034000000083120313AB1B8B1703170C0D0E0D4C
:100350007F390319C5290313A80003170D080313D8
:10036000A90003170F080313AA002808B5004D21A0
:10037000290803178D0003132A0803178F008D0A1D
:1003800003198F0A03137129031703138A110A1221
:10039000CE2D0B08A9008B13831603178C170C1492
:1003A0000000000083120313A91B8B170318002AF7
:1003B00003170C087F390313A90003170D08031353
:1003C000AA0003170F080313AB002908B5004D213D
:1003D0002A0803178D0003132B0803178F0003133C
:1003E0000B08AC008B13831603178C170C1400003A
:1003F000000083120313AC1B8B17A80B002A1F2AC3
:1004000003170C0D0E0D7F390313A90003170D08F8
:100410000313AA0003170F080313AB002908B50044
:100420004D212A0803178D0003132B0803178F0093
:100430008D0A03198F0A03100313A80BC92908009A
:100440002B08F8012A020318282A2A08F700342A60
:10045000F7010830AC00AA0DF70D2B08770203183E
:10046000F700F80DAC0B2B2A080078082808AA0022
:100470006430AB0020227708A80078083030031DD4
:10048000482AA91C4F2AA9194F2A291A20304B2A79
:10049000A91129122914F8077808B5004D21280858
:1004A000AA000A30AB0020227708A8007808303074
:1004B000031D602AA919642A291C642A291A2030DC
:1004C000F8077808B5004D213030A8072808B50096
:1004D0004D218A110A12DD2DB0010408AF00301041
:1004E000831B3014290EF038AB00AB07E23EAC00A2
:1004F000323EAE0029080F39AC07AC07AE07E93E23
:10050000AD00AD07AD07280E0F39AD07AE07AD0D35
:10051000AE0DAE09AE0D28080F39AE07AB0D073092
:10052000AA000A30AE07AD03031C922AAD07AC0344
:10053000031C962AAC07AB03031C9A2AAB07AA0339
:10054000031C9E2A2A308400831307302F052F13A3
:1005500084072E30040203192F170008F700031D2B
:10056000B92A2F1BB92A2F1ACB2AAF19B92A203042
:10057000BC2AAF152F123030F707A9010408A800D4
:100580002910831B29147708B5004D212808840001
:10059000831329188317840A2F1FA92A8A110A1284
:1005A000EE2D8318D62A3D3084008313F701F8011D
:1005B000F901FA01BD01BE01BF01C0013C083B04C5
:1005C0003A0439040319142B2030C1000310B50D6F
:1005D000B60DB70DB80DBD0DBE0DBF0DC00D3C085D
:1005E0004002031DFD2A3B083F02031DFD2A3A0875
:1005F0003E02031DFD2A39083D02031C0E2B39085B
:10060000BD023A08031C3A0FBE023B08031C3B0F15
:10061000BF023C08031C3C0FC0020314F70DF80D89
:10062000F90DFA0DC10BE62A3D088000840A3E0848
:100630008000840A3F088000840A40088000080087
:100640000408AD002C08AF0003193F2B2B08B8009D
:100650002A08B7002908B6002808B500BC01BB016C
:100660002030BA008230B900D8207A08AB0079086F
:10067000AA007808A9007708A800AF0B262B7E30C7
:10068000F700F801A91BF817F901FA0183102B08EC
:10069000B8002A08B7002908B6002808B5007A086B
:1006A000BC007908BB007808BA007708B900803030
:1006B0008318BA06BF01C0013608BE003A08BE065C
:1006C00035080319472CBD00F70039080319502CD1
:1006D000BD020319EC2B031CAA2B3A08C300C31755
:1006E0003B08C2003C08C100C0010310C30CC20C8F
:1006F000C10CC00CBD0B742BBE1F812B3F14642C8E
:100700003F103D103F16383084008313792C3F1280
:10071000BE1B942B3D1C9F2BC30CC20CC10CC00CE8
:10072000F70A03195F2C9F2BC31BA22B0310C00DCC
:10073000C10DC20DC30DF70303195F2C942B3F1796
:100740000C2C3F133608BE00BE1FA82BC317582C15
:10075000C313582C3908BD00F7003508BD02360810
:10076000C300C3173708C2003808C100C001031016
:10077000C30CC20CC10CC00CBD0BB62BBE1FC32BCF
:10078000BF14642CBF103D10BF163C30840083138F
:10079000792CBF12BE1BD62B3D1CE12BC30CC20C07
:1007A000C10CC00CF70A03195F2CE12BC31BE42B0F
:1007B0000310C00DC10DC20DC30DF70303195F2C4B
:1007C000D62BBF170C2CBF133A08BE00BE1FEA2B56
:1007D000C317582CC313582C3A08C300C3173B083F
:1007E000C2003C08C100BE1FF92BC3133F15642C87
:1007F0003F11C0013D10383084008313792CBE1B9B
:10080000222C3608BE003D1C0C2CC30CC20CC10CA3
:10081000C00CF70A03195F2CC01F1D2CC10A031D51
:100820001D2CC20A031D1D2CC30A031D1D2CC30C45
:10083000C20CC10CF70A03195F2C3F1BA12BBF1B75
:10084000E32B412C8030C306C31F2A2C642C3A08AA
:10085000BE00372C3608BE00C308031D372CC20863
:10086000031D372CC108031D372CF701582CC31B5F
:10087000412C0310C00DC10DC20DC30DF70B372C59
:100880005F2CBE1F452CC317582CC313582C390896
:10089000F7003A08C3003B08C2003C08C100582CCE
:1008A0003508F7003608C3003708C2003808C10011
:1008B0004308F8004208F9004108FA00972CF701B4
:1008C000F801F901FA01972CC001C109C209C30955
:1008D000C009C00A031D722CC10A031D722CC20A72
:1008E0000319C30A3F18802BBF18C22B3F19F82BDE
:1008F000272C0008C107031C832CC20A031D832C6C
:10090000C30A03193D1484030008C207031C8B2C7F
:10091000C30A03193D1484030008801F803AC307EB
:1009200003183D143F1A872BBF1AC92BFF2B7A08D7
:10093000AB007908AA007808A9007708A8002B085E
:10094000B8002A08B7002908B6002808B5003508FD
:10095000B63CB500FA013608B900B6170310B60C5C
:10096000B70CB80CFA0CF90CF80CF70CB50BAE2C54
:10097000B91FC52CF709F809F909FA09F70A03198B
:10098000F80A0319F90A0319FA0A7A08AB00790878
:10099000AA007808A9007708A800AB1FDC2CAD03DB
:1009A000AD16A809A909AA09AB09A80A0319A90A39
:1009B0000319AA0A0319AB0A3B30B4009A30B300FA
:1009C000CA30B200B1010A30AF002C080319AD0AD9
:1009D00083142830840083132B08B8002A08B7003A
:1009E0002908B6002808B5003408BC003308BB004D
:1009F0003208BA003108B900D1227808F708031D7F
:100A0000142D2C0A2F020319142D2D080319162D4D
:100A10000F392F0203190E2D0318462DAD1B462D3D
:100A20002D1B162D2030422D2030AD05AD1E242D5E
:100A3000AD122C08031DAD037708AD002D30B500B5
:100A40004D212D08F700AD012C082F02031D322D7A
:100A50007708AD002E30B5004D212D08F70020306D
:100A6000AD0500303030AD1E422DAD122C08031DF7
:100A7000AD037708AD002D30B5004D212D08F700EE
:100A8000AD013030F7077708B5004D2183103408E9
:100A9000B8003308B7003208B6003108B500BC0111
:100AA000BB01BA010A30B900D1227A08B400790832
:100AB000B3007808B2007708B100AF0BE82C8A11B8
:100AC0000A12052E03081F3983008316031709082D
:100AD000C039890003131F129F12003003178800CA
:100AE00083128701880189018313FF308316031362
:100AF000870083121F179F1783169F1783121F14D7
:100B0000831603170908C039890003131F129F12A7
:100B10000F3003178800831203137B280130B600BF
:100B2000B700A7200708A1000330A105210DF70099
:100B3000F70DFC30F7051F08C33977049F009F1499
:100B40009F18A02D1E08FA0083161E088312A2000B
:100B50001E08A300A9002208A800B9287A08B80036
:100B60007908B7007808B6007708B5000A30BC00ED
:100B70002830BB002030BA007730B900D8207A087E
:100B8000A7007908A6007808A5007708A4000C3013
:100B900003178D0000308F00031371290F300317E6
:100BA0008D0000308F00031006300313A800C92108
:100BB0002108A8001B30A900352A133003178D0027
:100BC00000308F00031005300313A800C921103036
:100BD00084002308A9002208A8006C2A17300317F4
:100BE0008D0000308F0003100D300313A800C921C1
:100BF000893084002708AB002608AA002508A90030
:100C00002408A8000230AC00202B0230A800963047
:0C0C1000B6002020A80B072E922D6300D8
:04400E00D420FF3E7D
:00000001FF
;PIC16F886
;CRC=20D9  CREATED="26-nov.-18 13:28"
