:1000000000308A0050280000FF00030E8301A10089
:100010000A08A0008A010408A2007708A300780853
:10002000A4007908A5007A08A600831383128C30F7
:100030008400801E1D288C1A2E2822088400230884
:10004000F7002408F8002508F9002608FA0020081F
:100050008A00210E8300FF0E7F0E09008A110A120A
:1000600031288C1E31281A08A7008C128A110A1216
:100070001D28323084008313000803194D280130F5
:10008000F800F701F70B4228F80B41284A30F70037
:10009000F70B48284B28800B3F288A110A12942816
:1000A00003081F39830083160317871119300313C0
:1000B0009900A63098009030831298008316031799
:1000C0000908C039890003131F129F12003003175B
:1000D0008800831287018801890183138316031323
:1000E0008C16C03083128B04003083168500860086
:1000F000FF3087000E308312A8000D30A9000B30AE
:10010000AA000730AB00AC0128302C078400831311
:100110000008B20085000130AC072C08033C031C2A
:10012000AC011430B2003928AF010708AE002E0828
:100130000F39B000B101270B9F288617A02886131E
:100140002C08FC3E03183929043E3F293008073C9F
:10015000031DAF28B108031DAF283130AD003008B2
:100160000B3C031DB828B108031DB8283430AD007E
:1001700030080D3C031DC128B108031DC1283730CC
:10018000AD0030080E3C031DCA28B108031DCA2863
:100190002A30AD0039293008073C031DD428B108A6
:1001A000031DD4283230AD0030080B3C031DDD2880
:1001B000B108031DDD283530AD0030080D3C031DAE
:1001C000E628B108031DE6283830AD0030080E3CA3
:1001D000031DEF28B108031DEF283030AD00392989
:1001E0003008073C031DF928B108031DF9283330F6
:1001F000AD0030080B3C031D0229B108031D022984
:100200003630AD0030080D3C031D0B29B108031D2D
:100210000B293930AD0030080E3C031D1429B108FC
:10022000031D14292330AD0039293008073C031D74
:100230001E29B108031D1E294130AD0030080B3CBA
:10024000031D2729B108031D27294230AD003008BE
:100250000D3C031D3029B108031D30294330AD008A
:1002600030080E3C031D3929B108031D39294430DB
:10027000AD002D080C1E3A299900842863000A1449
:0E0280008A100A118207A6281529F028CB281B
:04400E00D420FF3E7D
:00000001FF
;PIC16F886
;CRC=1D8F  CREATED="02-may.-19 08:55"
