:1000000006308A00602E00000A108A100A1182074A
:1000100028340C34013406340C100A100C00411042
:100020002B104205A01275102B10A53AA01EA0128D
:1000300075000C100A100C0041102D104205A01282
:1000400075102D10A53AA01EA01264000C100A1005
:100050000C0041102A104205A01275102A10A53A72
:10006000A01EA01264000C100A100C0041102F10EA
:100070004205A01275102F10A53AA01EA012AE19AD
:1000800067003730840083130008031955280130B6
:10009000F800F701F70B4A28F80B49284A30F70017
:1000A000F70B50285328800B472808003E0EF039E4
:1000B000F7000F300605770486000000061460285C
:1000C000061008008610F03083168600831206158D
:1000D0000000061400000608060E0F39BE000610C8
:1000E0000000061400000608060E0F39BD000610B9
:1000F00000308316860083123E0EF700F030F705BD
:1001000077083D04F8007808BD00BD1B63283B1C40
:1001100086103B18861400000611000006103C0EE5
:10012000BD000F30BD053D08BE0056203C080F390C
:10013000BD00BE00562008000030831686008312E2
:100140008610061106100F30B70041200130A900BB
:100150002908033C031CB4280330BE005620053098
:10016000B7004120A90AA8280230BE005620A901E4
:100170002908033C031CC52829080420AA00BB0148
:100180002A08BC006220A90AB8288A110A12792E0E
:10019000380BCB28CE284030B900CF28B901013028
:1001A0003702B90739088038BA00BB013A08BC00E9
:1001B0006220080036080C3A0319E528063A0319AC
:1001C000ED28023A0319F328F828BB010130BC00DE
:1001D00062200230B7004120FD280130B700023014
:1001E000B800C820FD28BB011030BC006220FD28EB
:1001F0000130BB003608BC00622008000B08A900D3
:100200008B13831603178C170C1400000000831245
:100210000313A91B8B1703170C087F3903195229E5
:100220000313A90003170D080313AA0003170F08EF
:100230000313AB002908B600DA202A0803178D0043
:1002400003132B0803178F0003130B08AC008B1349
:10025000831603178C170C1400000000831203137D
:10026000AC1B8B1703170C0D0E0D7F390319522988
:100270000313A90003170D080313AA0003170F089F
:100280000313AB002908B600DA202A0803178D00F3
:1002900003132B0803178F008D0A03198F0A03130A
:1002A000FE280317031308000B08AA008B138316FC
:1002B00003178C170C140000000083120313AA1BF1
:1002C0008B1703188B2903170C087F390313AA0017
:1002D00003170D080313AB0003170F080313AC003B
:1002E0002A08B600DA202B0803178D0003132C0808
:1002F00003178F0003130B08AD008B13831603172E
:100300008C170C140000000083120313AD1B8B1715
:10031000A90B8B29AA2903170C0D0E0D7F39031386
:10032000AA0003170D080313AB0003170F080313EC
:10033000AC002A08B600DA202B0803178D0003133F
:100340002C0803178F008D0A03198F0A031003135B
:10035000A90B542908003008F8012F020318B3290B
:100360002F08F700BF29F7010830B100AF0DF70DD6
:10037000300877020318F700F80DB10BB629080012
:1003800078082908AF006430B000AB217708A900D5
:1003900078083030031DD329AA1CDA29AA19DA29D2
:1003A0002A1A2030D629AA112A122A14F807780806
:1003B000B600DA202908AF000A30B000AB21770878
:1003C000A90078083030031DEB29AA19EF292A1C4F
:1003D000EF292A1A2030F8077808B600DA203030E2
:1003E000A9072908B600DA20080020302A1E30307C
:1003F000AB002908F700A91F052AF709F70A7708B3
:10040000A9002D30AB00AA172A142908AF006430C8
:10041000B000AB217708A90030307807AC0029087C
:10042000AF000A30B000AB2130307707AE0030307B
:100430007807AD002B08F70030302C020319242A6E
:10044000AA14AA1B2A15382A2B08AC002030AB00AE
:1004500030302D020319302A2A14AA1BAA14382A74
:10046000031D2A14031D382A2C08AD002030AC00CF
:100470002A193F2AAA18422A2A18452A482A2B084C
:10048000B600DA202C08B600DA202D08B600DA20F3
:100490002E08B600DA200800F701F8012908031039
:1004A0002A18F707F70CF80CAA18F707F70CF80C3E
:1004B0002A19F707F70CF80CAA19F707F70CF80C2C
:1004C0002A1AF707F70CF80CAA1AF707F70CF80C1A
:1004D0002A1BF707F70CF80CAA1BF707F70CF80C08
:1004E0008A110A120B2F8E30F7002E08F8002D0803
:1004F000F900FA01F808031D872A7908F800F901C4
:100500000830F702F808031D872AF7018F2A031025
:10051000F81B8E2AF90DF80DF703872AF813080047
:100520002D080319552BB90031080319552BB902B1
:10053000031C9F2A7F30B9070318552BA52A813049
:10054000B902031C552B0319552B3908F700F80184
:10055000F901FA01B8012E08B700B7172F08B60045
:100560003008B5001930B9003408B5020318C82A9C
:100570000130B6020318C82AB7020318C82AB80205
:100580000318C82AB80AB70AB60A3408B507FA2AFF
:100590003308B6020318E32A0130B7020318E32A2E
:1005A000B8020318E32AB80AB70A3308B6073408B2
:1005B000B507031CFA2AB60A031DFA2AB70A031D57
:1005C000FA2AB80AFA2A32088038B7020318F92A38
:1005D0000130B8020318F92AB80A32088038B70780
:1005E0003308B607031CD72AB70A031DD72AB80A4F
:1005F000D72A7A14B90BFD2A082B0310B50DB60DB6
:10060000B70DB80D0310FA0DF90DF80DBA0DB42A97
:100610003A1C102B0310F80CF90CFA0CBA0C132B23
:10062000F7030319552BBA1B3C2B0310B50DB60D60
:10063000B70DB80D3408B5020318282B0130B602E7
:100640000318282BB7020318282BB802031C4B2BC6
:100650003308B6020318332B0130B7020318332BCB
:10066000B802031C4B2B32088038B70203183C2B0E
:100670000130B802031C4B2BFA0A031D4B2BF90A5D
:10068000031D4B2BF80A031D4B2BF70A0319552B9F
:10069000F80CF90CFA0C2E08B9003208B906B91F8B
:1006A000532BF817592BF813592BF701F801F901BF
:1006B000FA018A110A12642F8318612B3E308400DC
:1006C0008313F701F801F901FA01BE01BF01C0016E
:1006D000C1013D083C043B043A0403199F2B203020
:1006E000C2000310B60DB70DB80DB90DBE0DBF0D8C
:1006F000C00DC10D3D084102031D882B3C0840027E
:10070000031D882B3B083F02031D882B3A083E023D
:10071000031C992B3A08BE023B08031C3B0FBF0287
:100720003C08031C3C0FC0023D08031C3D0FC102E6
:100730000314F70DF80DF90DFA0DC20B712B3E08DD
:100740008000840A3F088000840A40088000840AF0
:100750004108800008000408AE002D08B00003190D
:100760003D2C2C08B9002B08B8002A08B70029082E
:10077000B600BD01BC012030BB008230BA00360893
:1007800003192F2CBE003A0803192F2CBE0703189B
:10079000D02B7F30BE02031C2F2C03192F2CD42BFF
:1007A0008130BE0703182F2C3E08F700F801F9012D
:1007B000FA013708C200C2173808C1003908C00062
:1007C0001830BE00BF01401CFD2B3D08FA07031C7A
:1007D000EF2BF90A031DEF2BF80A0319BF173C088A
:1007E000F907031CF62BF80A0319BF173B08B800DA
:1007F000B8173808F8070318BF17BF0DF80CF90C25
:10080000FA0CC20CC10CC00C0310BE0BE22B013061
:10081000F70703182F2CF81B142CC20DFA0DF90D35
:10082000F80DF70303192F2CC21F252CFA0A031DFC
:10083000252CF90A031D252CF80A031D252CF80C7C
:10084000F90CFA0CF70A03192F2C3708BF003B08E4
:10085000BF06BF1F2D2CF817332CF813332CF701CC
:10086000F801F901FA017A08AC007908AB007808C0
:10087000AA007708A900B00BB12B7E30F700F80171
:10088000AA1BF817F901FA0183102C08B9002B08EC
:10089000B8002A08B7002908B6007A08BD00790810
:1008A000BC007808BB007708BA0080308318BB060C
:1008B000C001C1013708BF003B08BF063608031955
:1008C000452DBE00F7003A0803194E2DBE0203194C
:1008D000EA2C031CA82C3B08C400C4173C08C30026
:1008E0003D08C200C1010310C40CC30CC20CC10CF2
:1008F000BE0B722CBF1F7F2C4014622D40103E1087
:100900004016393084008313772D4012BF1B922C80
:100910003E1C9D2CC40CC30CC20CC10CF70A03195D
:100920005D2D9D2CC41BA02C0310C10DC20DC30D49
:10093000C40DF70303195D2D922C40170A2D4013A7
:100940003708BF00BF1FA62CC417562DC413562D41
:100950003A08BE00F7003608BE023708C400C417C4
:100960003808C3003908C200C1010310C40CC30C0D
:10097000C20CC10CBE0BB42CBF1FC12CC014622D05
:10098000C0103E10C0163D3084008313772DC01276
:10099000BF1BD42C3E1CDF2CC40CC30CC20CC10CDE
:1009A000F70A03195D2DDF2CC41BE22C0310C10DC7
:1009B000C20DC30DC40DF70303195D2DD42CC01750
:1009C0000A2DC0133B08BF00BF1FE82CC417562DCB
:1009D000C413562D3B08C400C4173C08C3003D088F
:1009E000C200BF1FF72CC4134015622D4011C10176
:1009F0003E10393084008313772DBF1B202D37081C
:100A0000BF003E1C0A2DC40CC30CC20CC10CF70A5B
:100A100003195D2DC11F1B2DC20A031D1B2DC30A07
:100A2000031D1B2DC40A031D1B2DC40CC30CC20CBB
:100A3000F70A03195D2D401B9F2CC01BE12C3F2D95
:100A40008030C406C41F282D622D3B08BF00352D01
:100A50003708BF00C408031D352DC308031D352DFD
:100A6000C208031D352DF701562DC41B3F2D031061
:100A7000C10DC20DC30DC40DF70B352D5D2DBF1F6C
:100A8000432DC417562DC413562D3A08F7003B08C2
:100A9000C4003C08C3003D08C200562D3608F700CC
:100AA0003708C4003808C3003908C2004408F800F9
:100AB0004308F9004208FA00952DF701F801F90101
:100AC000FA01952DC101C209C309C409C109C10AAE
:100AD000031D702DC20A031D702DC30A0319C40A19
:100AE00040187E2CC018C02C4019F62C252D00086B
:100AF000C207031C812DC30A031D812DC40A0319DB
:100B00003E1484030008C307031C892DC40A03197B
:100B10003E1484030008801F803AC40703183E1463
:100B2000401A852CC01AC72CFD2C7A08AC00790815
:100B3000AB007808AA007708A9002C08B9002B0898
:100B4000B8002A08B7002908B6003608B63CB60037
:100B5000FA013708BA00B7170310B70CB80CB90C74
:100B6000FA0CF90CF80CF70CB60BAC2DBA1FC32D10
:100B7000F709F809F909FA09F70A0319F80A031934
:100B8000F90A0319FA0A7A08AC007908AB00780868
:100B9000AA007708A900AC1FDA2DAE03AE16A9098A
:100BA000AA09AB09AC09A90A0319AA0A0319AB0AD5
:100BB0000319AC0A3B30B5009A30B400CA30B30018
:100BC000B2010A30B0002D080319AE0A831429308F
:100BD000840083132C08B9002B08B8002A08B7003A
:100BE0002908B6003508BD003408BC003308BB0036
:100BF0003208BA005C237808F708031D122E2D0A6C
:100C000030020319122E2E080319142E0F39300248
:100C100003190C2E0318442EAE1B442E2E1B142E2B
:100C20002030402E2030AE05AE1E222EAE122D08F2
:100C3000031DAE037708AE002D30B600DA202E0873
:100C4000F700AE012D083002031D302E7708AE00EC
:100C50002E30B600DA202E08F7002030AE05003026
:100C60003030AE1E402EAE122D08031DAE037708A5
:100C7000AE002D30B600DA202E08F700AE0130307D
:100C8000F7077708B600DA2083103508B900340872
:100C9000B8003308B7003208B600BD01BC01BB0183
:100CA0000A30BA005C237A08B5007908B4007808E5
:100CB000B3007708B200B00BE62D8A110A12A62FF6
:100CC00003081F398300831603170908C0398900F8
:100CD00003131F129F12003003178800831287012D
:100CE000880189018313FF30831603138500831263
:100CF0009C280508A1003830A105A10CA10CA10C6D
:100D00001F30A1050508A2000730A2050508A300B1
:100D1000C030A305A30EA30CA30C0330A305013020
:100D2000B700B800C820A308031DCB2E2208210756
:100D3000A4000C3003178D0000308F000313FE2039
:100D40000F3003178D0000308F000310073003139E
:100D5000A90054212108A9001B30AA00C02120307D
:100D6000B600DA202B30B600DA202030B600DA20C8
:100D70002208A9001B30AA00C0212030B600DA20CA
:100D80003D30B600DA202030B600DA202408A90071
:100D90001B30AA00C021230B022F22082102A4002D
:100DA000193003178D0000308F000313FE201C3014
:100DB00003178D0000308F00031007300313A900C4
:100DC00054212108A9001B30AA00C0212030B60000
:100DD000DA202D30B600DA202030B600DA202208E2
:100DE000A9001B30AA00C0212030B600DA203D3017
:100DF000B600DA202030B600DA202408A900183026
:100E0000AA00F5212308023C031D3F2F2108A90059
:100E10002208AA004C2A7808A400263003178D0067
:100E200000308F000313FE20293003178D0000309F
:100E30008F00031007300313A90054212108A900D3
:100E40001B30AA00C0212030B600DA202A30B600BC
:100E5000DA202030B600DA202208A9001B30AA00D0
:100E6000C0212030B600DA203D30B600DA20203034
:100E7000B600DA202408A9001830AA00F5212308BA
:100E8000033C031DA62FAE012108AD0073227A0892
:100E9000AC007908AB007808AA007708A900AE0179
:100EA0002208AD0073222C08B0002B08AF002A08DE
:100EB000AE002908AD007A08B4007908B3007808BC
:100EC000B2007708B100902A7A08A8007908A70034
:100ED0007808A6007708A500333003178D0000308E
:100EE0008F000313FE20363003178D0000308F0073
:100EF000031007300313A90054212108A9001B3057
:100F0000AA00C0212030B600DA202F30B600DA2047
:100F10002030B600DA202208A9001B30AA00C02128
:100F20002030B600DA203D30B600DA202030B6009E
:100F3000DA20893084002808AC002708AB00260896
:100F4000AA002508A9000330AD00AB2B0230A90090
:0E0F50009630B7004120A90BA82F792E630020
:04400E00D420FF3E7D
:00000001FF
;PIC16F886
;CRC=1FDB  CREATED="16-nov.-18 09:20"
