:1000000005308A00022D00000A108A100A118207AA
:1000100028340C340134063449376739E539651022
:100020006536203B61366F393A05D3327428EF3498
:100030006E3A3A10A53AA53AA02120100000D43219
:100040006D386539613A7539611D25338A29653AFC
:10005000F0376937741DA53A202ABC298016D4329E
:100060006D386539613A7539611D25338A29653ADC
:10007000F0376937741DA53A202ABD290001D43212
:100080006D386539613A7539611D25338A29653ABC
:10009000F0376937741DA53A202ABE290001453979
:1000A000F237EF37721020102010201020100A10A5
:1000B0000C003D3084008313000803196D280130C3
:1000C000F800F701F70B6228F80B61284A30F700B7
:1000D000F70B68286B28800B5F280800440EF03966
:1000E000F7000F3006057704860000000614782814
:1000F000061008008610F03083168600831206155D
:100100000000061400000608060E0F39C400061091
:100110000000061400000608060E0F39C300061082
:100120000030831686008312440EF700F030F70586
:1001300077084304F8007808C300C31B7B28411CE0
:100140008610411886140000061100000610420EA9
:10015000C3000F30C3054308C4006E2042080F39A6
:10016000C300C4006E20080000308316860083128E
:100170008610061106100F30BD0059200130AF0067
:100180002F08033C031CCC280330C4006E2005302C
:10019000BD005920AF0AC0280230C4006E20AF0154
:1001A0002F08033C031CDD282F080420B000C101E8
:1001B0003008C2007A20AF0AD0288A110A12172DFF
:1001C0003E0BE328E6284030BF00E728BF0101309E
:1001D0003D02BF073F088038C000C1014008C2008F
:1001E0007A2008003C080C3A0319FD28063A031946
:1001F0000529023A03190B291029C1010130C20057
:100200007A200230BD00592015290130BD0002308E
:10021000BE00E0201529C1011030C2007A20152946
:100220000130C1003C08C2007A2008000B08B00071
:100230008B13831603178C170C1400000000831215
:100240000313B01B8B1703184D2903170C087F39B4
:100250000313B00003170D080313B10003170F08B1
:100260000313B2003008BC00F220310803178D00E0
:100270000313320803178F0003130B08B3008B130B
:10028000831603178C170C1400000000831203134D
:10029000B31B8B17AF0B4D296C2903170C0D0E0DDB
:1002A0007F390313B00003170D080313B1000317C0
:1002B0000F080313B2003008BC00F2203108031706
:1002C0008D000313320803178F008D0A03198F0A5C
:1002D00003100313AF0B162908003208F80131028E
:1002E000031875293108F7008129F7010830B30098
:1002F000B10DF70D320877020318F700F80DB30BB4
:100300007829080078082F08B1006430B2006D2108
:100310007708AF0078083030031D9529B01C9C2960
:10032000B0199C29301A20309829B011301230149D
:10033000F8077808BC00F2202F08B1000A30B2009C
:100340006D217708AF0078083030031DAD29B01952
:10035000B129301CB129301A2030F8077808BC00C8
:10036000F2203030AF072F08BC00F22008008E309A
:10037000F7003008F8002F08F900FA01F808031D0B
:10038000CB297908F800F9010830F702F808031DB5
:10039000CB29F701D3290310F81BD229F90DF80D49
:1003A000F703CB29F81308003C080319442AC400BA
:1003B00040080319442AC4070318E5297F30C40202
:1003C000031C442A0319442AE9298130C40703186D
:1003D000442A4408F700F801F901FA013D08C80071
:1003E000C8173E08C7003F08C6001830C400C50142
:1003F000461C122A4308FA07031C042AF90A031DA3
:10040000042AF80A0319C5174208F907031C0B2A26
:10041000F80A0319C5174108BE00BE173E08F807C1
:100420000318C517C50DF80CF90CFA0CC80CC70C4D
:10043000C60C0310C40BF7290130F7070318442A30
:10044000F81B292AC80DFA0DF90DF80DF703031949
:10045000442AC81F3A2AFA0A031D3A2AF90A031D38
:100460003A2AF80A031D3A2AF80CF90CFA0CF70A92
:100470000319442A3D08C5004108C506C51F422A84
:10048000F817482AF813482AF701F801F901FA0188
:1004900008002F0803190E2BBB00330803190E2B7D
:1004A000BB02031C582A7F30BB0703180E2B5E2AA1
:1004B0008130BB02031C0E2B03190E2B3B08F700E7
:1004C000F801F901FA01BA013008B900B917310889
:1004D000B8003208B7001930BB003608B70203185D
:1004E000812A0130B8020318812AB9020318812A2F
:1004F000BA020318812ABA0AB90AB80A3608B70735
:10050000B32A3508B80203189C2A0130B90203182F
:100510009C2ABA0203189C2ABA0AB90A3508B807F5
:100520003608B707031CB32AB80A031DB32AB90A51
:10053000031DB32ABA0AB32A34088038B902031853
:10054000B22A0130BA020318B22ABA0A3408803833
:10055000B9073508B807031C902AB90A031D902A69
:10056000BA0A902A7A14BB0BB62AC12A0310B70D17
:10057000B80DB90DBA0D0310FA0DF90DF80DBC0D3B
:100580006D2A3C1CC92A0310F80CF90CFA0CBC0C9F
:10059000CC2AF70303190E2BBC1BF52A0310B70D49
:1005A000B80DB90DBA0D3608B7020318E12A0130AB
:1005B000B8020318E12AB9020318E12ABA02031C9F
:1005C000042B3508B8020318EC2A0130B9020318CD
:1005D000EC2ABA02031C042B34088038B902031831
:1005E000F52A0130BA02031C042BFA0A031D042B5E
:1005F000F90A031D042BF80A031D042BF70A03193B
:100600000E2BF80CF90CFA0C3008BB003408BB06B2
:10061000BB1F0C2BF817122BF813122BF701F80144
:10062000F901FA018A110A12D62DF701F8012F08F3
:1006300003103018F707F70CF80CB018F707F70C91
:10064000F80C3019F707F70CF80CB019F707F70C8E
:10065000F80C301AF707F70CF80CB01AF707F70C7C
:10066000F80C301BF707F70CF80CB01BF707F70C6A
:10067000F80C8A110A12E32D3008B7003408B706C7
:10068000B71F472B03110310B01B03147A2B30083C
:10069000B7003308B8002F08B8020319552BB71F4D
:1006A0007A2B0308013A83007A2B3408B80030080B
:1006B000B8020319612BB71F7A2B0308013A830094
:1006C0007A2B3508B8003108B80203196D2BB71F13
:1006D0007A2B0308013A83007A2B3608B8003208D7
:1006E000B8020319792BB71F7A2B0308013A83004C
:1006F0007A2B031008008318802B44308400831366
:10070000F701F801F901FA01C401C501C601C701E9
:1007100043084204410440040319BE2B2030C800A2
:100720000310BC0DBD0DBE0DBF0DC40DC50DC60D16
:10073000C70D43084702031DA72B42084602031DAD
:10074000A72B41084502031DA72B40084402031CA8
:10075000B82B4008C4024108031C410FC5024208DF
:10076000031C420FC6024308031C430FC7020314B5
:10077000F70DF80DF90DFA0DC80B902B4408800009
:10078000840A45088000840A46088000840A4708D5
:10079000800008000408B4003308B6000319E92BF0
:1007A0003208BF003108BE003008BD002F08BC0071
:1007B000C301C2012030C1008230C000D4217A08B8
:1007C000B2007908B1007808B0007708AF00B60B26
:1007D000D02B3208BF003108BE003008BD002F0802
:1007E000BC003C08B63CBC00FA013D08C000BD1787
:1007F0000310BD0CBE0CBF0CFA0CF90CF80CF70C76
:10080000BC0BF82BC01F0F2CF709F809F909FA09DE
:10081000F70A0319F80A0319F90A0319FA0A7A08F8
:10082000B2007908B1007808B0007708AF00B21FB5
:10083000262CB403B416AF09B009B109B209AF0A46
:100840000319B00A0319B10A0319B20A3B30BB00FD
:100850009A30BA00CA30B900B8010A30B60033087D
:100860000319B40A83142F30840083133208BF00A5
:100870003108BE003008BD002F08BC003B08C30093
:100880003A08C2003908C1003808C0007B23780844
:10089000F708031D5E2C330A360203195E2C340858
:1008A0000319602C0F3936020319582C0318902CA9
:1008B000B41B902C341B602C20308C2C2030B405C1
:1008C000B41E6E2CB4123308031DB4037708B400B1
:1008D0002D30BC00F2203408F700B4013308360292
:1008E000031D7C2C7708B4002E30BC00F2203408A5
:1008F000F7002030B40500303030B41E8C2CB41218
:100900003308031DB4037708B4002D30BC00F22077
:100910003408F700B4013030F7077708BC00F22044
:1009200083103B08BF003A08BE003908BD003808F4
:10093000BC00C301C201C1010A30C0007B237A0898
:10094000BB007908BA007808B9007708B800B60B80
:10095000322C08000B08AF008B13831603178C177B
:100960000C140000000083120313AF1B8B17031736
:100970000C087F390319FE2C0313AF0003170D0871
:100980000313B00003170F080313B1002F08BC00B6
:10099000F220300803178D000313310803178F006E
:1009A00003130B08B2008B13831603178C170C1458
:1009B0000000000083120313B21B8B1703170C0DEA
:1009C0000E0D7F390319FE2C0313AF0003170D081A
:1009D0000313B00003170F080313B1002F08BC0066
:1009E000F220300803178D000313310803178F001E
:1009F0008D0A03198F0A0313AA2C031703138A11F4
:100A00000A12CE2E03081F39830083160317090824
:100A1000C039890003131F129F120030031788008A
:100A2000831287018801890183130313B428FF30DF
:100A300083168500870083121F179F1783169F1741
:100A400083121F14831603170908C0398900031382
:100A50001F129F120130031788000030F800831224
:100A600003131F08C33978049F00A101A201A30149
:100A7000071C3F2DC830BD0059200130A1070718C1
:100A80003F2D2108013C031CA101210803194C2D15
:100A9000013A03199E2DC32E871D542D0130A30248
:100AA000A31F542D0930A3008719542D071E602D54
:100AB0000130A307A31B602D2308093C031CA301DD
:100AC000071A602D871C6A2D0130A202A21F6A2D11
:100AD0000930A20087186A2D071D762D0130A20764
:100AE000A21B762D2208093C031CA2010719762DB2
:100AF0000130BD00BE00E0200C3003178D00003037
:100B00008F0003101C300313AF0016212208AF0022
:100B10001B30B00082212308AF001B30B0008221BF
:100B20001C3003178D0000308F00031004300313B6
:100B3000AF001621C830BD005920CE2E9F149F183B
:100B40009F2D83161E088312A4001E08A5002508E9
:100B5000B0002408AF00B7217A08BF007908BE00B2
:100B60007808BD007708BC000A30C3002830C200F6
:100B70002030C1007730C000D4217A08A90079085C
:100B8000A8007808A7007708A6002908B20028085E
:100B9000B1002708B0002608AF000A30B600D730F1
:100BA000B5002330B4007830B300492A7A08AD008C
:100BB0007908AC007808AB007708AA002208AF00DB
:100BC0000A30B000152B23087807AE000130BD00B5
:100BD000BE00E020B0012E08AF00B7212D08B20002
:100BE0002C08B1002B08B0002A08AF007A08B60024
:100BF0007908B5007808B4007708B3003C23031CDB
:100C0000312E1F3003178D0000308F0003100C3081
:100C10000313AF001621893084002D08B2002C0880
:100C2000B1002B08B0002A08AF000230B300CA237D
:100C3000263003178D0000308F0003100A30031395
:100C4000AF0016212E08AF001B30B00082212C30DF
:100C500003178D0000308F00031004300313AF0022
:100C60001621B0012E08AF00B7212D08B2002C08C4
:100C7000B1002B08B0002A08AF007A08B600790846
:100C8000B5007808B4007708B3003C23031D782E24
:100C90002F3003178D0000308F0003100C3003132A
:100CA000AF001621893084002D08B2002C08B10055
:100CB0002B08B0002A08AF000230B300CA23363038
:100CC00003178D0000308F0003100A300313AF00AC
:100CD00016212E08AF001B30B00082213C300317D4
:100CE0008D0000308F00031004300313AF00162175
:100CF000B0012E08AF00B7217A08B2007908B10020
:100D00007808B0007708AF002D08B6002C08B500B1
:100D10002B08B4002A08B3003C23031CBF2E3F302D
:100D200003178D0000308F0003100C300313AF0049
:100D30001621893084002D08B2002C08B1002B0840
:100D4000B0002A08AF000230B300CA2346300317B0
:100D50008D0000308F0003100A300313AF001621FE
:100D60002E08AF001B30B00082214C3003178D00DD
:100D700000308F00031004300313AF001621C83079
:100D8000BD005920CE2E0130BD00BE00E0204F3006
:100D900003178D0000308F000313AA2C382D630039
:04400E00D420FF3E7D
:00000001FF
;PIC16F886
;CRC=7F7E  CREATED="07-mar.-19 09:08"
