:1000000001308A0089290000FF00030E8301A1004E
:100010000A08A0008A010408A2007708A300780853
:10002000A4007908A5007A08A60003170D08031399
:10003000A70003170F080313A80003170C080313E6
:10004000A90003170E080313AA00831383128C3030
:100050008400801E2D288C1A4E2822088400230834
:10006000F7002408F8002508F9002608FA002708F8
:1000700003178D000313280803178F0003132908A3
:1000800003178C0003132A0803178E00031320089C
:100090008A00210E8300FF0E7F0E09008A110A12CA
:1000A00059280A108A100A11820728340C340134A6
:1000B00006348C1E59281A08AB008C128A110A12B9
:1000C0002D28D432633661107039E539E937EE30C6
:1000D000E4303A05A5312010201020102010201007
:1000E00020102010201020100000323084008313D4
:1000F0000008031989280130F800F701F70B7E2862
:10010000F80B7D284A30F700F70B84288728800BEE
:100110007B280800390EF039F7000F300605770408
:100120008600000006149428061008008610F0309F
:1001300083168600831206150000061400000608C8
:10014000060E0F39B900061000000614000006085C
:10015000060E0F39B8000610003083168600831291
:10016000390EF700F030F70577083804F800780802
:10017000B800B81B9728361C861036188614000065
:10018000061100000610370EB8000F30B805380809
:10019000B9008A2037080F39B800B9008A20080052
:1001A00000308316860083128610061106100F3069
:1001B000B20075200130AD002D08033C031CE82877
:1001C0000330B9008A200530B2007520AD0ADC2862
:1001D0000230B9008A20AD012D08033C031CF92828
:1001E0002D085120AE00B6012E08B7009620AD0AAA
:1001F000EC288A110A12AE29330BFF28022940305D
:10020000B4000329B40101303202B4073408803845
:10021000B500B6013508B7009620080031080C3A41
:1002200003191929063A03192129023A0319272922
:100230002C29B6010130B70096200230B20075209B
:1002400031290130B2000230B300FC203129B6015F
:100250001030B700962031290130B6003108B700C0
:10026000962008000B08AE008B13831603178C171B
:100270000C140000000083120313AE1B8B1703182D
:10028000692903170C087F390313AE0003170D0803
:100290000313AF0003170F080313B0002E08B100BB
:1002A0000E212F0803178D000313300803178F004A
:1002B00003130B08B1008B13831603178C170C1450
:1002C0000000000083120313B11B8B17AD0B6929CB
:1002D000882903170C0D0E0D7F390313AE00031789
:1002E0000D080313AF0003170F080313B0002E0807
:1002F000B1000E212F0803178D00031330080317D8
:100300008F008D0A03198F0A03100313AD0B3229D6
:10031000080003081F39830083160317871119305B
:1003200003139900A630980090308312980083162A
:1003300003170908C039890003131F129F120030E8
:1003400003178800831287018801890183138316AC
:1003500003138C16C03083128B04D0280130B200F6
:10036000B300FC20613003178D0000308F000310B4
:1003700012300313AD0032212B08B1000E216B3077
:1003800003178D0000308F00031012300313AD00EF
:1003900032212B08303C031DD0290130AC00D1297B
:0E03A000AC012C080C1ED2299900AE29630076
:04400E00D420FF3E7D
:00000001FF
;PIC16F886
;CRC=7C59  CREATED="02-may.-19 08:54"
